:100000000EC0189518951895189518951895189567
:100010001895189518951895189520C122C18FE547
:100020008DBFC8E3E8E24E2E81E08EBFD1E0F1E063
:100030005F2EA89584B7082E877F84BF88E1992713
:1000400081BD91BDEEEFF0E0A0E6B0E088278D9392
:100050003197E9F766248AE480936100F6D06F9ABD
:100060006E9ABB9ABC9AC398C49878940000FECF4D
:100070000895089500916200013009F005C0809153
:1000800063008093650010C0023009F00DC000913C
:100090006500083009F008C000916300003009F0E5
:1000A00002C0C39801C0C39A00916500013009F0F5
:1000B00002C037D012C0023009F002C03ED00DC0DD
:1000C000043009F002C05BD008C0083009F002C05B
:1000D000000003C080E080936500089508950091BA
:1000E0006400013009F005C08091660080936300D0
:1000F00017C0023009F005C0809169008093630049
:100100000FC0033009F005C0809167008093630041
:1001100007C0043009F004C0809168008093630038
:100120000895C49A80E08093660081E0E6E356D1AA
:100130005EEE81E0E6E374D1089581E0E6E34ED11E
:100140005CEA81E0E6E36CD1BB27A6E181E0E6E36F
:1001500021E02A9389D1052F40E80423AAE6B0E0E4
:100160000C9300916A00003809F005C081E080938B
:100170006600C49803C080E08093660008950091F3
:100180006600013009F03BC081E0E6E327D15AEA7E
:1001900081E0E6E345D1BB27A6E181E0E6E321E08B
:1001A0002A9362D1A9E6B0E05C9381E0E6E316D140
:1001B00050EA81E0E6E334D1BB27A6E181E0E6E343
:1001C00021E02A9351D1A8E6B0E05C9381E0E6E318
:1001D00005D151E481E0E6E323D181E0E6E3FED0FE
:1001E00050EA81E0E6E31CD1BB27A6E181E0E6E32B
:1001F00021E02A9339D1A7E6B0E05C9309C08FEFE4
:10020000809369008FEF809368008FEF8093670081
:1002100008953197F1F70895689462F80895E89485
:1002200062F80895B89801C0B89A88278FB98EE708
:100230008EB90895B89801C0B89A80E78EB908952C
:1002400088EA8DB980E78EB90895C29AC09ABA9AA1
:10025000B89888EA8DB980EF8EB908952F93222738
:1002600002C02F9321E00F921F922F923F924F9244
:100270005F927F92AF92BF920F931F932F933F9302
:100280004F935F936F937F938F939F93AF93BF939E
:10029000CF93DF93EF93FF938FB78F93203091F439
:1002A000E7DE80E080936000B898B09902C0B29910
:1002B000FCCFB09B02C088EA01C088EF8DB980EF07
:1002C0008EB957C00EB105FF02C0BFDF52C090917A
:1002D00060009030D9F40FB1102F0E7F003031F054
:1002E00080916100081711F0ABDF43C0882780932D
:1002F00062008093640010FF03C0F0DE81E002C062
:10030000B8DE84E0809360008FDF33C0933021F447
:100310001FB1112319F0E8CF913071F4809164007E
:10032000839580936400DBDE809163008FB982E067
:100330008093600081DF1DC0923029F483E08093B8
:10034000600070DF16C0943029F485E0809360006F
:1003500071DF0FC0953069F48FB180936300809195
:10036000620083958093620085DE84E08093600064
:100370005BDF8F918FBFFF91EF91DF91CF91BF91A5
:10038000AF919F918F917F916F915F914F913F912D
:100390002F911F910F91BF90AF907F905F904F90E2
:1003A0003F902F901F900F902F91189591E08823E8
:1003B00021F08894991F8A95E9F7892F90950895DF
:1003C0000181082B0183128119231283EF93FF937C
:1003D000E8E0F0E01EDFFF91EF91089520DFFF27B6
:1003E000E5DFEEDFEF93FF93ECEBF3E012DFFF913D
:1003F000EF91182B128309230183EF93FF93E8E811
:10040000F0E007DFFF91EF911081182309F004DF7E
:10041000EF93FF93E0E3F3E0FCDEFF91EF910895AB
:10042000C5DFFF2721E048E005C0C0DFFF27299195
:100430005D9148E0C5DF579510F4182B1283EF93B8
:10044000FF93E8E6F0E0E5DEFF91EF91182B1283D1
:10045000EF93FF93E0E1F0E0DCDEFF91EF914A954E
:1004600049F72A9529F70895A1DFFF27299148E048
:100470005527A6DF09230183EF93FF93EEE0F0E019
:10048000C8DEFF91EF9188941081182309F0089439
:100490005795EF93FF93EAE6F0E0BBDEFF91EF9113
:0C04A0004A9539F75D932A9511F70895ED
:00000001FF
