:100000000EC0189518951895189518951895189567
:100010001895189518951895189541C143C18FE505
:100020008DBFC8E3E8E24E2E81E08EBFD1E0F1E063
:100030005F2EA89584B7082E877F84BF88E1992713
:1000400081BD91BDEEEFF0E0A0E6B0E088278D9392
:100050003197E9F7662488E48093610017D16F9A9D
:100060006E9ABB9ABC9AC398C49878940000FECF4D
:100070000895089500916200013009F005C0809153
:10008000630080936E0010C0023009F00DC0009133
:100090006E00083009F008C000916300003009F0DC
:1000A00002C0C39801C0C39A00916E00013009F0EC
:1000B00002C03DD012C0023009F002C062D00DC0B3
:1000C000043009F002C09BD008C0083009F002C01B
:1000D000000003C080E080936E00089508950091B1
:1000E0006400013009F005C080916F0080936300C7
:1000F0001DC0023009F005C0809165008093630047
:1001000015C0033009F005C080916600809363003C
:100110000DC0043009F00AC0A3E6B0E0BA93AA9378
:10012000A9E6B0E0BA93AA9371D024960895C49A30
:1001300080E080936F0081E08093700000917000F8
:10014000093010F009F011C080E0A0E7B0E0AD90F8
:10015000BB24A4E6B0E0AA0DBB1D8C93A0E7B0E0E1
:100160008C918F5F8C9308F4E9CF81E0E6E357D15F
:100170005CEC81E0E6E375D154E481E0E6E371D123
:10018000089581E0E6E34BD15CEC81E0E6E369D1E0
:100190005EEB81E0E6E365D181E080937000009141
:1001A0007000093010F009F017C0BB27A6E181E00C
:1001B000E6E321E02A9379D1A0E7B0E0AD90BB243B
:1001C000A4E6B0E0AA0DBB1D5C93A0E7B0E08C9163
:1001D0008F5F8C9308F4E3CF88E0E5E6F0E087D109
:1001E000402F00916D00041709F005C081E0809355
:1001F0006F00C49803C080E080936F000895009161
:100200006F00013009F401C0BCDF0895A881B981F5
:100210000C910F3109F004C089E08093710014C083
:100220000F3309F004C08AE0809371000DC00F35D0
:1002300009F004C08BE08093710006C00F3709F00D
:1002400003C08CE08093710080917100AA81BB8112
:100250008C9308953197F1F70895689462F80895A2
:10026000E89462F80895B89801C0B89A88278FB9C1
:100270008EE78EB90895B89801C0B89A80E78EB914
:10028000089588EA8DB980E78EB90895C29AC09A18
:10029000BA9AB89888EA8DB980EF8EB908952F93ED
:1002A000222702C02F9321E00F921F922F923F929C
:1002B0004F925F927F92AF92BF920F931F932F93B3
:1002C0003F934F935F936F937F938F939F93AF93DE
:1002D000BF93CF93DF93EF93FF938FB78F9320302C
:1002E00091F4C6DE80E080936000B898B09902C0B7
:1002F000B299FCCFB09B02C088EA01C088EF8DB9EB
:1003000080EF8EB957C00EB105FF02C0BFDF52C0EB
:10031000909160009030D9F40FB1102F0E7F003013
:1003200031F080916100081711F0ABDF43C08827DE
:10033000809362008093640010FF03C0CFDE81E0F1
:1003400002C097DE84E0809360008FDF33C093307B
:1003500021F41FB1112319F0E8CF913071F480918D
:100360006400839580936400BADE809163008FB946
:1003700082E08093600081DF1DC0923029F483E029
:100380008093600070DF16C0943029F485E080937C
:10039000600071DF0FC0953069F48FB18093630006
:1003A0008091620083958093620064DE84E0809394
:1003B00060005BDF8F918FBFFF91EF91DF91CF9155
:1003C000BF91AF919F918F917F916F915F914F916D
:1003D0003F912F911F910F91BF90AF907F905F90B1
:1003E0004F903F902F901F900F902F91189591E074
:1003F000882321F08894991F8A95E9F7892F909591
:1004000008950181082B0183128119231283EF9330
:10041000FF93E8E0F0E01EDFFF91EF91089520DF09
:10042000FF27E5DFEEDFEF93FF93ECEBF3E012DF66
:10043000FF91EF91182B128309230183EF93FF9310
:10044000E8E8F0E007DFFF91EF911081182309F051
:1004500004DFEF93FF93E0E3F3E0FCDEFF91EF9125
:100460000895C5DFFF2721E048E005C0C0DFFF2772
:1004700029915D9148E0C5DF579510F4182B128340
:10048000EF93FF93E8E6F0E0E5DEFF91EF91182BA4
:100490001283EF93FF93E0E1F0E0DCDEFF91EF9158
:1004A0004A9549F72A9529F70895A1DFFF27299151
:1004B00048E05527A6DF09230183EF93FF93EEE081
:1004C000F0E0C8DEFF91EF9188941081182309F0C5
:1004D00008945795EF93FF93EAE6F0E0BBDEFF91B7
:1004E000EF914A9539F75D932A9511F70895002702
:1004F0006CE8719198E00695779577FF18F477FD91
:0E05000008F006279A95B9F78A9599F708959D
:00000001FF
